:200000000C9446000C9460000C9460000C9460000C9460000C9460000C9460000C946000FA
:200020000C9460000C9460000C9460000C9460000C9460000C9460000C9460000C946000C0
:200040000C9460000C9460000C9460000C9460000C9460000C9460000C9460000C946000A0
:200060000C9460000C9460000C9460000C9460000C9460000C9460000C9460000C94600080
:200080000C9460000C9460000C94600011241FBECFEFD0E1DEBFCDBF11E0A0E0B1E0E4E2EE
:2000A000F7E000E00BBF02C007900D92A030B107D9F70E9470000C94900311241FBE10C048
:2000C0000C94000020E030E046E655E005C0FA013197F1F72F5F3F4F28173907C0F30895B4
:2000E0002F923F924F925F926F927F928F929F92AF92BF92CF92DF92EF92FF920F931F936E
:20010000DF93CF93CDB7DEB7C652D1400FB6F894DEBF0FBECDBFD79ADF9A85E089B988E188
:200120008AB9000080E090E0A0E0B0E042E050E020E030E010C0FA013197F1F70196A11D6A
:20014000B11D813E67E6960765E3A60760E0B60710F021E030E05F9903C02115310559F3B2
:20016000C9010196C25EDE4F99838883CE51D140C25EDE4FA881B981CE51D140119709F0F9
:20018000B6C28824992454014424552432012224332460E0C05EDE4F1882C052D14080E0D0
:2001A00040E050E0C25EDE4FE881F981CE51D140319741F43CB1C25EDE4F19821882CE5104
:2001C000D14003C05F9BFECF3CB1833059F1843028F4813081F0823000F508C0853089F10A
:2001E000853038F1863009F042C03DC03B31D1F681E06BE1D7CF313041F0C05EDE4FF88197
:20020000C052D1403F1709F089C26327C05EDE4F3883C052D14082E0C5CF532F40E063274C
:2002200083E0C0CF832F90E0482B592B632784E0B9CF3E3009F072C2632785E02224332416
:20024000B1CFE1E0F0E0EC0FFD1FE20DF31D30830894211C311C63272416350609F0A2CF35
:20026000A10186E09FCF361709F058C203C0873009F098CF9981933109F4EAC09431B0F4E0
:20028000963009F4B8C0973050F4923009F4DEC0933009F455C0913009F0E0C13BC09031CF
:2002A00008F4DCC1923108F4D1C0A0C0983109F46FC0993150F4953109F4CAC0953108F4E3
:2002C00061C1963109F0CAC15DC19A3109F454C09A3108F479C09B3109F443C09D3109F024
:2002E000BDC18D81803311F090E00AC08F81882311F49EE105C0813011F092E001C097E91B
:200300001A821B828D818C831D829E831F8247E050E0A8C11A8288E08B8381E48C8386E575
:200320008D8382E58E8389E48F8383E5888780E589878FE58A8782E38B874BE050E092C120
:200340008A81813941F0823941F0803911F48FE005C080E003C082E001C08AE01A828B836F
:2003600042C08D81882311F48EE12CC0813011F082E028C087E926C01A8229E0E1E0F0E0DA
:200380002093680084918B831C8244E050E06AC18B81803589F48C81883039F429E0E2E007
:2003A000F0E02093680084910DC029E0E0E0F0E020936800849106C029E0E3E0F0E0209392
:2003C000680084911A82DFCF8D81836C39E0E1E0F0E0082E30936800E8958091680080FDDB
:2003E000FCCF1A821B8243E050E03CC11A8244245524320135C18A8190E0A0E0B0E0B82E92
:20040000AA24992488248B8190E0A0E0B0E0DC0199278827882A992AAA2ABB2A8D8190E021
:20042000A0E0B0E0882A992AAA2ABB2A8C8190E0A0E0B0E0BA2FA92F982F8827882A992A45
:20044000AA2ABB2A880C991CAA1CBB1C1A8208C14A81CE5DDE4F4883C252D140CF5DDE4F2C
:200460001882C152D1408B81A82FB0E0CF5DDE4FE881F981C152D140AE2BBF2B933109F06B
:2004800058C0F0E04F16F8EF5F06F1E06F06F0E07F0698F423E0F20160925B00209368003E
:2004A000E8958091680080FDFCCF20E031E040E050E0420E531E641E751EB501A4018E01DD
:2004C000055F1F4FF801808121810E5F1F4FCC5DDE4F2883C452D140CD5DDE4F1882C352A5
:2004E000D14090E0CD5DDE4F28813981C352D140822B932B31E00C01FA0160935B00309306
:200500006800E89511244E5F5F4F6F4F7F4F1297C9F685E0F401A0925B0080936800E89593
:200520008091680080FDFCCF91E190936800E89525C0B501A401FE013B9611978D0120E03A
:2005400030E00F5F1F4F2F4F3F4F080D191D2A1D3B1D4EBBBB27A72F962F852F8FBB4F5F87
:200560005F4F6F4F7F4F81918DBBE29AE19AE199FECF401751076207730759F71A824A01E0
:200580005B016EC0AA81CA5DDE4FA883C652D140CB5DDE4F1882C552D1408B81C82EDD24E4
:2005A000CB5DDE4FE881F981C552D140CE2ADF2A1A8289818431F1F4A60123E0E22EF12CC3
:2005C000EC0EFD1EABBEF40187919691D7018C9311969C93E2E0F0E0EE0EFF1E82E090E01F
:2005E000A0E0B0E0880E991EAA1EBB1E4250504049F72EC0B501A40193E0E92EF12CEC0EB1
:20060000FD1E0894C108D108860120E030E00894C11CD11C0F5F1F4F2F4F3F4F080D191D51
:200620002A1D3B1D4EBBBB27A72F962F852F8FBB4F5F5F4F6F4F7F4FE09A8DB3D7018D93FD
:200640007D01401751076207730761F74A015B01A6014D5F5F4FF701108204C0F0ECFA83E3
:2006600042E050E02BE12CB95E9BFECF5E9AC05EDE4F3881C052D1403CB95E9BFECF5E9A9F
:20068000352F5CB95E9BFECF5E9A942F4CB95E9BFECF5E9A8EE08CB95E9BFECF5E9A65E1E6
:2006A000C05EDE4F8881C052D140682769276327FE01319609C080818CB95E9BFECF3196B8
:2006C0005E9A68274150504041155105A1F76CB95E9BFECF5E9AC05EDE4F9881C052D140C4
:2006E0009F5FC05EDE4F9883C052D14058CDD798DF9880E090E026E635E0F9013197F1F7CD
:20070000019684369105C9F70000599881E180936800E8951F921F920895FFCF80E042CDAB
:04072000F894FFCF7B
:00000001FF
