:100000000C9446000C9465000C9465000C946500FB
:100010000C9465000C9465000C9465000C946500CC
:100020000C9465000C9465000C9465000C946500BC
:100030000C94270D0C9465000C9465000C946500DD
:100040000C9483040C9465000C94CD0A0C94650008
:100050000C9465000C9465000C9465000C9465008C
:100060000C9465000C9404040C9465000C946500D9
:100070000C9465000C9465000C94540B0C94650072
:100080000C9465000C9465000C94650011241FBE4F
:10009000CFEFD0E1DEBFCDBF12E0A0E0B1E0E4E100
:1000A000F8E200E00BBF02C007900D92AA32B10740
:1000B000D9F714E0AAE2B2E001C01D92AD31B10758
:1000C000E1F70E9422020C9408140C94000020E036
:1000D00090912C0280912D02981321E0822F089597
:1000E00080912C02E82FF0E0EB5AFD4FE0818F5F0A
:1000F00080932C02843611F410922C028E2F0895D6
:10010000DF92EF92FF920F931F9302E0FF24F3948C
:100110009EE7D92E83E0E82E90913B0280913C022D
:100120009817B9F00E94410B182FE0912E02EB3086
:10013000B1F0E13019F1E13030F51E3769F7109375
:100140003F02F0922E0290913B0280913C02981760
:1001500049F71F910F91FF90EF90DF900895109253
:100160002E028E37C9F6809141028E3F09F465C098
:100170008D3FC1F1E0912E02E130E9F61E3769F1C1
:1001800010922E02C9CFE23099F0AE2FB0E0A15C00
:10019000BD4F8C918D37C1F01C931D3709F4BCCF36
:1001A000EF5FE0932E02F0E0E15CFD4F1082B4CFF0
:1001B000812F8D5F823008F0AFCF109341021092F3
:1001C0004202E0922E02A8CF1E3591F11D35C1F6F4
:1001D0008C93EF5FE0932E029FCF10934002009329
:1001E0002E029ACF80914202282F2150263010F6FD
:1001F000882309F4BFCF90912D02A3E4B2E030E050
:100200002C5B3D4F04C01196A217B30771F0E92F84
:10021000F0E0EB5AFD4F8C9180839F5F943699F705
:1002200090E01196A217B30791F790932D02A2CFF9
:10023000DC92EF5FE0932E026FCF809142028093B9
:100240002A028091430280932B0280E592E0609124
:1002500044020E947C0B80930001609145026695E8
:100260008BE492E00E947C0B80930101809141021B
:100270007FCF0E94290B089560E875E280E090E04E
:100280000E94F50A8BE492E0609101010E949E0BAE
:1002900080E592E0609100010E949E0B089580919C
:1002A0002F02882321F080913102853170F52AE0F8
:1002B0002093C902EAECF2E0809135028093CA02F1
:1002C0001092CB021092CC0280913802882309F060
:1002D0008AC02093E102809185038093E202118E0F
:1002E0001092E4022093E502809186038093E60257
:1002F000158E1092E8022093E90280918703809383
:10030000EA0211A21092EC0208952AE02093C90299
:1003100080910103909102039093CB028093CA02D3
:100320001092CC022093CD0280910303909104039C
:100330009093CF028093CE021092D0022093D102EC
:1003400080910503909106039093D3028093D2028B
:100350001092D4022093D502809107039091080354
:100360009093D7028093D6021092D8022093D9029C
:100370008091090390910A039093DB028093DA0243
:100380001092DC022093DD0280910B0390910C030C
:100390009093DF028093DE021092E0022093E1024C
:1003A00080910D0390910E039093E3028093E202FB
:1003B0001092E4022093E50280910F0390911003C4
:1003C0009093E7028093E6021092E8022093E902FC
:1003D00080911103909112039093EB028093EA02B3
:1003E0001092EC0208952093CD028093CE021582E4
:1003F0001092D0022093D102809136029091370260
:100400009093D3028093D2021092D4022093D5020B
:10041000809185038093D60215861092D80220938E
:10042000D902809186038093DA02118A1092DC024D
:100430002093DD02809187038093DE02158A10925B
:10044000E00208952F923F924F925F926F927F92B7
:100450008F929F92AF92BF92CF92DF92EF92FF92D4
:100460000F931F93CF93DF93D79AD898D09AD198B0
:10047000D99AD298DA9AD69AD59ADD9ADE9ADF9AE4
:1004800084B784B7D09AD89A0E943C018EE10E942A
:10049000430681E00E9466090E94A50BCAECD2E0E7
:1004A00064E0A62EB12CAC0EBD1E5CE0852E912C16
:1004B0008C0E9D1E40E1642E712C6C0E7D1E34E16D
:1004C000432E512C4C0E5D1E28E1222E312C2C0E79
:1004D0003D1E02E090E4F92EC12C82EAD82E1AE0EB
:1004E000EE24E39481B78130E9F7809139028823C3
:1004F00039F012BE87B7816087BF03BF11BEF2CF4C
:100500008BB38F258BBB0E9494048BB38F258BBB41
:100510000E94C80B0E94800090912F02992309F439
:1005200077C080913102853108F472C01093C902FE
:1005300080910103909102039093CB028093CA02B1
:100540001092CC021093CD0280910303909104038A
:100550009093CF028093CE021092D0021093D102DA
:1005600080910503909106039093D3028093D20269
:100570001092D4021093D502809107039091080342
:100580009093D7028093D6021092D8021093D9028A
:100590008091090390910A039093DB028093DA0221
:1005A0001092DC021093DD0280910B0390910C03FA
:1005B0009093DF028093DE021092E0021093E1023A
:1005C00080910D0390910E039093E3028093E202D9
:1005D0001092E4021093E50280910F0390911003B2
:1005E0009093E7028093E6021092E8021093E902EA
:1005F00080911103909112039093EB028093EA0291
:100600001092EC02C6010197F1F70E94490671CFE2
:10061000809130028823A1F180913202853180F1EE
:10062000992309F0A3C01093C902809135028093E9
:10063000CA0219821092CC0280913802882309F0F4
:1006400062C01093E102809185038093E202F10180
:1006500011821092E4021093E50280918603809348
:10066000E6021092E7021092E8021093E9028091EC
:1006700087038093EA021092EB021092EC02C2CF41
:100680008091000180931F01109220011093C902F4
:100690008093CA0219821092CC021093CD028091ED
:1006A00001018093CE02F50111821092D002E092F6
:1006B000D10260912B0270E0882777FD8095982FFA
:1006C0000E948F1023E333E343E550E40E94350F8B
:1006D00020E030E040E251E40E94350F20E030E0BD
:1006E00040E850E40E94350F20E030E040E85BE352
:1006F0000E94350F0E94ED107093D3026093D202D6
:100700001092D4027FCF1093CD028093CE02F501D8
:1007100011821092D0021093D102809136029091F2
:1007200037029093D3028093D2021092D402109396
:10073000D502809185038093D602F4011182109234
:10074000D8021093D902809186038093DA02F301D4
:1007500011821092DC021093DD0280918703809356
:10076000DE02F20111821092E0024CCF8091310240
:10077000853108F458CFDACE10928B0090917D002D
:10078000906290937D0090918A00906890938A0087
:10079000882361F180918A00806480938A0081E0DF
:1007A000809382001092BA021092B9021092BC0299
:1007B0001092BB021092BE021092BD021092C002B3
:1007C0001092BF021092C2021092C1021092C40293
:1007D0001092C3021092C6021092C5021092C80273
:1007E0001092C70282E080938A00089580918A0067
:1007F0008F7B80938A00D3CFEDE7F0E080818F7DFF
:10080000808310928A0008951F920F920FB60F9264
:100810000BB60F921124FF920F931F932F933F93C8
:100820004F935F936F937F938F939F93AF93BF93F8
:10083000EF93FF938091800090918100209186003A
:1008400030918700821B930B9093850080938400E6
:100850008091800090918100909387008093860022
:10086000609184007091850080E090E00E944111C9
:1008700020E030E048ED55E40E942F101816C4F136
:10088000F090830060918400709185000F2D10E03E
:10089000000F111F07541D4F80E090E00E9441118E
:1008A00029E23CE54FEC54E40E94D70E0E94ED1083
:1008B000F80171836083F394F09283008091830048
:1008C0008830E1F0FF91EF91BF91AF919F918F91AF
:1008D0007F916F915F914F913F912F911F910F9158
:1008E000FF900F900BBE0F900FBE0F901F901895AA
:1008F0001092830081E080938200E4CF1092830005
:1009000010928200DFCF1F920F920FB60F92112428
:100910008F9313BE81E081BF109239028F910F90A7
:100920000FBE0F901F90189580911E0188E0809354
:100930003302609136027091370240910103509169
:1009400002039091870380E020918603DC01A20FCF
:10095000B11D9D01B0930203A0930103CD01825606
:10096000984F8D539F4008F07FC1A901E0E0CA0174
:10097000880F892F881F990B840F951F55954795D0
:1009800055954795841B950B90930E0480930D0409
:1009900040910303509104039091890380E02091DA
:1009A0008803DC01A20FB11D9D01B0930403A09345
:1009B0000303CD018256984F8D539F4008F04CC1E0
:1009C000A901CA01880F892F881F990B840F951FD1
:1009D0005595479555954795841B950B9093100415
:1009E00080930F04409105035091060390918B036F
:1009F00080E020918A03DC01A20FB11D9D01B0931C
:100A00000603A0930503CD018256984F8D539F4056
:100A100008F01AC1A901CA01880F892F881F990BF4
:100A2000840F951F5595479555954795841B950BB4
:100A3000909312048093110440910703509108038E
:100A400090918D0380E020918C03DC01A20FB11DF9
:100A50009D01B0930803A0930703CD018256984FE0
:100A60008D539F4008F0E8C0A901CA01880F892F63
:100A7000881F990B840F951F559547955595479558
:100A8000841B950B909314048093130440910903E5
:100A900050910A0390918F0380E020918E03DC0136
:100AA000A20FB11D9D01B0930A03A0930903CD01CC
:100AB0008256984F8D539F4008F0B6C0A901CA01D5
:100AC000880F892F881F990B840F951F559547957F
:100AD00055954795841B950B9093160480931504A8
:100AE00040910B0350910C039091910380E0209171
:100AF0009003DC01A20FB11D9D01B0930C03A093E4
:100B00000B03CD018256984F8D539F4008F084C04F
:100B1000A901CA01880F892F881F990B840F951F7F
:100B20005595479555954795841B950B90931804BB
:100B30008093170440910D0350910E0390919303FD
:100B400080E020919203DC01A20FB11D9D01B093C2
:100B50000E03A0930D03CD018256984F8D539F40F5
:100B600008F052C0A901CA01880F892F881F990B6C
:100B7000840F951F5595479555954795841B950B63
:100B800090931A048093190440910F03509110031D
:100B90009091950380E020919403DC01A20FB11D98
:100BA0009D01B0931003A0930F03CD018256984F7F
:100BB0008D539F4008F5A901CA01880F892F881F0E
:100BC000990B840F951F5595479555954795841B0F
:100BD000950B90931C0480931B04E0933802709350
:100BE000370260933602809135028F5F8093350221
:100BF000843609F441C008955093100340930F03C5
:100C00006F5F7F4FEF5FD8CF50930E0340930D037C
:100C10006F5F7F4FEF5FA7CF50930C0340930B03A1
:100C20006F5F7F4FEF5F75CF50930A0340930903C7
:100C30006F5F7F4FEF5F43CF5093080340930703ED
:100C40006F5F7F4FEF5F11CF509306034093050313
:100C50006F5F7F4FEF5FDFCE50930403409303033A
:100C60006F5F7F4FEF5FADCE509302034093010360
:100C70006F5F7F4FE1E07BCE10923502109237021A
:100C8000109236020895882309F484E680932101A6
:100C90000895CF93DF9380913402E82FF0E0EE0FB8
:100CA000FF1FEE0FFF1FE753FD4F8081882309F4DC
:100CB00047C0C181D281CC0FDD1F83818111219674
:100CC00040912101242F30E080911F01909120015B
:100CD0002817390710F04423B1F580E00E94AA0AD2
:100CE00081E00E94AA0A80913402E82FF0E0EE0F22
:100CF000FF1FEE0FFF1FE753FD4F90818295807F0E
:100D0000890F0E94AA0A8C2F0E94AA0A8D2F992768
:100D100087FD9A950E94AA0A80E00E94AA0AE091A3
:100D20003402EF5FE0933402F0E0EE0FFF1FEE0FAE
:100D3000FF1FE753FD4F8081882311F41092340286
:100D4000DF91CF91089580E40E94AA0AC9CF0F9342
:100D50001F93CF93DF93182F062FEA01CC0FDD1FCF
:100D60002111219680911F01909120014F97E8F069
:100D700080E00E94AA0A81E00E94AA0A1295107FD0
:100D8000802F810F0E94AA0A8C2F0E94AA0A8D2F01
:100D9000992787FD9A950E94AA0A80E00E94AA0AD4
:100DA000DF91CF911F910F91089580E40E94AA0ACC
:100DB000E2CF8FEF0E94AA0A80E00E94AA0A80E098
:100DC0000E94AA0A80E00E94AA0A0895CF92DF92A8
:100DD000EF92FF921F93CF93DF93182F60E07BE495
:100DE00080E090E00E94830A112309F075C0C5EFEE
:100DF000D1E0BCECCB2EBAE0DB2EA9E9EA2EA1E8CB
:100E0000FA2EC6010197F1F7219709F453C090918A
:100E1000390280913A029817C1F10E94BA0A182F3C
:100E2000863709F4A3C080E01F3309F445C090E081
:100E30001B3209F446C0892B90E020E030E01D32DF
:100E400009F447C0822B932B892BF9F0C701019736
:100E5000F1F782E091E00E94AE0A81E00E94AA0AC6
:100E6000C7010197F1F780E40E94AA0A8AE00E9474
:100E7000AA0A83E30E94AA0A8DE00E94AA0A8AE0D5
:100E80000E94AA0AC7010197F1F7812F815682308B
:100E900048F4812FDF91CF911F91FF90EF90DF9069
:100EA000CF9008951237A9F3C6010197F1F7219762
:100EB00009F0ADCF17E6EDCF81E090E01B3209F0ED
:100EC000BACF91E0892B90E020E030E01D3209F0AC
:100ED000B9CF21E030E0B6CF10E0C9E9D1E8909178
:100EE000390280913A029817C1F10E94BA0A182F6C
:100EF000863709F450C080E01F3309F44AC090E0FF
:100F00001B3209F444C0892B90E020E030E01D3210
:100F100009F43AC0822B932B892BF9F0CE0101976B
:100F2000F1F782E091E00E94AE0A81E00E94AA0AF5
:100F3000CE010197F1F780E40E94AA0A8AE00E949C
:100F4000AA0A83E30E94AA0A8DE00E94AA0A8AE004
:100F50000E94AA0ACE010197F1F7812F81568230B3
:100F600008F497CF123709F0BACF93CFC701019792
:100F7000F1F78FE091E00E94AE0A8DE00E94AA0A8C
:100F80008AE00E94AA0A3DCF21E030E0C3CF91E081
:100F9000BACF81E0B4CFCE010197F1F78FE091E0B5
:100FA0000E94AE0A8DE00E94AA0A8AE00E94AA0A64
:100FB00096CF80E20E94AA0A8FEF0E94AA0A80E0E0
:100FC0000E94AA0A80E00E94AA0A80E00E94AA0A5F
:100FD000089580E40E94AA0A8FEF0E94AA0A80E086
:100FE0000E94AA0A80E00E94AA0A80E00E94AA0A3F
:100FF000089580E00E94AA0A8FEF0E94AA0A80E06A
:101000000E94AA0A80E00E94AA0A80E00E94AA0A1E
:1010100008950F931F93CF93DF93182F60E072EC26
:1010200081E090E00E94990A123609F412C1123749
:1010300059F0113621F489E995E10197F1F7DF9133
:10104000CF911F910F91089586E696E50197F1F7EC
:1010500000E010E0C4E1D1E080E40E94AA0A8FEF32
:101060000E94AA0A80E00E94AA0A80E00E94AA0ABE
:1010700080E00E94AA0A20E030E0CE010197F1F75B
:101080002F5F3F4F81E028313807B9F70F5F1F4FBF
:1010900081E0043F180701F760E070E044E151E0AF
:1010A00020E030E0CA010197F1F72F5F3F4F89E060
:1010B000243C3807B9F76F5F7F4F6330710581F7C4
:1010C00080E00E94AA0A8FEF0E94AA0A80E00E9494
:1010D000AA0A80E00E94AA0A80E00E94AA0A00E010
:1010E00018EDC8010197F1F780E00E94AA0A8FEF7E
:1010F0000E94AA0A80E00E94AA0A80E00E94AA0A2E
:1011000080E00E94AA0AC8010197F1F780E00E94DE
:10111000AA0A8FEF0E94AA0A80E00E94AA0A80E031
:101120000E94AA0A80E00E94AA0AC8010197F1F76A
:1011300080E00E94AA0A8FEF0E94AA0A80E00E9423
:10114000AA0A80E00E94AA0A80E00E94AA0AC801B6
:101150000197F1F780E00E94AA0A8FEF0E94AA0A85
:1011600080E00E94AA0A80E00E94AA0A80E00E9411
:10117000AA0AC8010197F1F780E00E94AA0A8FEF3E
:101180000E94AA0A80E00E94AA0A80E00E94AA0A9D
:1011900080E00E94AA0AC8010197F1F780E00E944E
:1011A000AA0A8FEF0E94AA0A80E00E94AA0A80E0A1
:1011B0000E94AA0A80E00E94AA0AC8010197F1F7DA
:1011C00080E00E94AA0A8FEF0E94AA0A80E00E9493
:1011D000AA0A80E00E94AA0A80E00E94AA0AC80126
:1011E0000197F1F780E00E94AA0A8FEF0E94AA0AF5
:1011F00080E00E94AA0A80E00E94AA0A80E00E9481
:10120000AA0AC8010197F1F780E00E94AA0A8FEFAD
:101210000E94AA0A80E00E94AA0A80E00E94AA0A0C
:1012200080E00E94AA0AC8010197F1F780E00E94BD
:10123000AA0A8FEF0E94AA0A80E00E94AA0A80E010
:101240000E94AA0A80E00E94AA0AC8010197F1F749
:10125000F6CE86E696E50197F1F700E010E0C4E1EE
:10126000D1E080E20E94AA0A8FEF0E94AA0A80E0E1
:101270000E94AA0A80E00E94AA0A80E00E94AA0AAC
:1012800020E030E0CE010197F1F72F5F3F4F81E082
:1012900028313807B9F70F5F1F4F81E0043F180767
:1012A00001F760E070E044E151E020E030E0CA0185
:1012B0000197F1F72F5F3F4F89E0243C3807B9F7DA
:1012C0006F5F7F4F6330710581F7FACECF92DF9267
:1012D000EF92FF921F93CF93DF93182F1092C902C2
:1012E0001092CD021092D1021092D5021092D90222
:1012F0001092DD021092E1021092E5021092E902D2
:101300001092ED021092F1021092F50260E07BE47F
:1013100080E090E00E94830A112309F087C0C5EFA6
:10132000D1E09CECC92E9AE0D92E89E9E82E81E81B
:10133000F82EC6010197F1F7219709F465C0909145
:10134000390280913A029817C1F10E94BA0A182F07
:10135000863709F4B5C080E01F3309F457C090E028
:101360001B3209F458C0892B90E020E030E01D3298
:1013700009F459C0822B932B892BF9F0C7010197EF
:10138000F1F782E091E00E94AE0A81E00E94AA0A91
:10139000C7010197F1F780E40E94AA0A8AE00E943F
:1013A000AA0A83E30E94AA0A8DE00E94AA0A8AE0A0
:1013B0000E94AA0AC7010197F1F7812F8156823056
:1013C000D8F4DF9880E09CE60197F1F7812F0E9426
:1013D0000908DF9A1092390210923A0211BE87B7BB
:1013E000816087BF82E083BFDF91CF911F91FF9023
:1013F000EF90DF90CF900895123719F3C60101974F
:10140000F1F7219709F09BCF17E6DBCF81E090E061
:101410001B3209F0A8CF91E0892B90E020E030E06A
:101420001D3209F0A7CF21E030E0A4CF10E0C9E9D8
:10143000D1E89091390280913A029817C1F10E9447
:10144000BA0A182F863709F450C080E01F3309F418
:101450004AC090E01B3209F444C0892B90E020E0A0
:1014600030E01D3209F43AC0822B932B892BF9F01E
:10147000CE010197F1F782E091E00E94AE0A81E08F
:101480000E94AA0ACE010197F1F780E40E94AA0AFD
:101490008AE00E94AA0A83E30E94AA0A8DE00E94C1
:1014A000AA0A8AE00E94AA0ACE010197F1F7812FC9
:1014B0008156823008F485CF123709F0BACF81CF38
:1014C000C7010197F1F78FE091E00E94AE0A8DE02D
:1014D0000E94AA0A8AE00E94AA0A2BCF21E030E0EB
:1014E000C3CF91E0BACF81E0B4CFCE010197F1F73D
:1014F0008FE091E00E94AE0A8DE00E94AA0A8AE085
:101500000E94AA0A96CF9B01AC01F89460E07CE8A7
:101510008AE090E00E94AF1321503040109290007A
:1015200029B988E18AB986E080939500579A789422
:1015300008959B01AC01F89460E07CE88AE090E0BB
:101540000E94AF13215030401092900029B9789436
:10155000089508955D9BFECF8CB90895FC018081AC
:10156000882339F05D9BFECF8CB93196808188232A
:10157000C9F70895E0913A02F0E0EB57FC4FE081A3
:1015800080913A028F5F80933A0280913A028436CA
:1015900011F410923A028E2F08951F920F920FB6F7
:1015A0000F920BB60F9211248F939F93EF93FF939B
:1015B000809139029CB1E82FF0E0EB57FC4F90830B
:1015C0008F5F8093390212BE80913902843611F404
:1015D00010923902FF91EF919F918F910F900BBE66
:1015E0000F900FBE0F901F9018959B01AC0160509B
:1015F000784E8A4E9F4F660F771F881F991F660F80
:10160000771F881F991F660F771F881F991F220F4A
:10161000331F441F551F220F331F441F551F220F16
:10162000331F441F551F220F331F441F551F0E9495
:10163000AF1321501092980020939900EAE9F0E04E
:1016400088E1808386E080939D008081806880832C
:1016500008950895982F80919B0085FFFCCF90936B
:101660009C000895FC019081992351F080919B008A
:1016700085FFFCCF90939C00319690819923B1F720
:101680000895E0913C02F0E0EF5DFC4FE081809135
:101690003C028F5F80933C0280913C02843611F4BF
:1016A00010923C028E2F08951F920F920FB60F9248
:1016B0000BB60F9211248F939F93EF93FF9380911A
:1016C0003B0290919C00E82FF0E0EF5DFC4F90838F
:1016D0008F5F80933B0280913B02843611F410921D
:1016E0003B02FF91EF919F918F910F900BBE0F9056
:1016F0000FBE0F901F901895DC018C91FD01E80F33
:10170000F11D61838F5F8C93843009F41C921296D3
:101710002C91129711968C91119790E0820F911D48
:1017200013962C911397820F911D14962C91820F72
:10173000911D95958795959587950895FC01108243
:1017400061836283638364830895BD9A10920E045B
:1017500010920D041092100410920F0410921204B3
:101760001092110410921404109213041092160493
:1017700010921504109218041092170410921A0473
:101780001092190410921C0410921B041FBC08959F
:1017900080913E02882309F059C18FE991E090932E
:1017A000EA038093E90360910D0470910E04615681
:1017B0007E4F80E090E00E94411129E23CE54FEC31
:1017C00054E40E94080F0E945F0D7093EC03609335
:1017D000EB0380E090E00E94411129E23CE54FECF0
:1017E00053E40E94080F0E945F0D9B01AC017093AF
:1017F000EE036093ED0360910F0470911004620F8B
:10180000731F80E090E00E94411129E23CE54FEC1B
:1018100054E40E94080F0E945F0D7093F0036093E0
:10182000EF0380E090E00E94411129E23CE54FEC9B
:1018300053E40E94080F0E945F0D9B01AC0170935E
:10184000F2036093F1036091110470911204620F2E
:10185000731F80E090E00E94411129E23CE54FECCB
:1018600054E40E94080F0E945F0D7093F40360938C
:10187000F30380E090E00E94411129E23CE54FEC47
:1018800053E40E94080F0E945F0D9B01AC0170930E
:10189000F6036093F5036091130470911404620FD2
:1018A000731F80E090E00E94411129E23CE54FEC7B
:1018B00054E40E94080F0E945F0D7093F803609338
:1018C000F70380E090E00E94411129E23CE54FECF3
:1018D00053E40E94080F0E945F0D9B01AC017093BE
:1018E000FA036093F9036091150470911604620F76
:1018F000731F80E090E00E94411129E23CE54FEC2B
:1019000054E40E94080F0E945F0D7093FC036093E3
:10191000FB0380E090E00E94411129E23CE54FEC9E
:1019200053E40E94080F0E945F0D9B01AC0170936D
:10193000FE036093FD036091170470911804620F19
:10194000731F80E090E00E94411129E23CE54FECDA
:1019500054E40E94080F0E945F0D7093000460938E
:10196000FF0380E090E00E94411129E23CE54FEC4A
:1019700053E40E94080F0E945F0D9B01AC0170931D
:101980000204609301046091190470911A04620FBB
:10199000731F80E090E00E94411129E23CE54FEC8A
:1019A00054E40E94080F0E945F0D7093040460933A
:1019B000030480E090E00E94411129E23CE54FECF5
:1019C00053E40E94080F0E945F0D9B01AC017093CD
:1019D00006046093050460911B0470911C04620F5F
:1019E000731F80E090E00E94411129E23CE54FEC3A
:1019F00054E40E94080F0E945F0D709308046093E6
:101A0000070480E090E00E94411129E23CE54FECA0
:101A100053E40E94080F0E945F0D70930A046093C4
:101A200009048CEC9BE590930C0480930B0481E0FB
:101A300090E09BBD8ABD1DBC1CBC80E187BF80E4DB
:101A40008FBD82E08EBD81E080933E0208951F929B
:101A50000F920FB60F920BB60F9211242F938F9304
:101A60009F93EF93FF93F89420913D022231F9F078
:101A70002031D1F0E22FF0E0EE0FFF1FE751FC4FD5
:101A8000808191819BBD8ABD2F5F20933D02789418
:101A9000FF91EF919F918F912F910F900BBE0F901F
:101AA0000FBE0F901F90189580E88FBDE3CF1DBC2F
:101AB0001CBC10923D0210923E021EBCE8CFEF9279
:101AC000FF920F931F937B018C0120E030E040E0F8
:101AD0005FE40E945F1088238CF0C801B70120E00A
:101AE00030E040E05FE40E94D70E0E94ED109B01C1
:101AF000AC01205030404040504806C0C801B701FA
:101B00000E94ED109B01AC01B901CA011F910F9118
:101B1000FF90EF900895A0E0B0E0E1E9FDE00C94C3
:101B2000D113DC012B01FA019C91923008F439C1E8
:101B3000EB018881823008F433C1943069F4843039
:101B400009F02FC111969C9111978981981709F47A
:101B500028C1A2E2B1E025C1843009F421C182305C
:101B6000A9F4923009F01DC19A01AD0188E0EA01A3
:101B70000990AE01E90109929E018150C1F7E2018D
:101B8000898111969C918923818308C1923009F43F
:101B900007C112962D903C901397EB018A819B818F
:101BA0001496AD90BD90CD90DC901797EC80FD80A1
:101BB0000E811F819101281B390BB90137FF04C029
:101BC00066277727621B730B603271050CF061C0CA
:101BD000121613066CF537014801062E04C09694C0
:101BE0008794779467940A94D2F721E030E040E03C
:101BF00050E004C0220F331F441F551F6A95D2F7CF
:101C000021503040404050402E213F21402351235D
:101C1000211531054105510521F021E030E040E07A
:101C200050E079018A01E628F728082919293CC0E3
:101C3000232BD1F1260E371E35014601062E04C096
:101C400096948794779467940A94D2F721E030E0D1
:101C500040E050E004C0220F331F441F551F6A9517
:101C6000D2F721503040404050402A213B214C21A6
:101C70005D21211531054105510521F021E030E0BC
:101C800040E050E059016A01A628B728C828D928A1
:101C90000BC0821593052CF01C01AA24BB246501FE
:101CA00003C0EE24FF24870111969C91D201119666
:101CB0008C91981709F445C0992339F0A801970130
:101CC0002A193B094C095D0906C0A60195012E1988
:101CD0003F09400B510B57FD08C01182338222820D
:101CE00024833583468357831DC081E081833382FB
:101CF000228288279927DC01821B930BA40BB50B4A
:101D000084839583A683B7830DC0220F331F441F9E
:101D1000551F24833583468357838281938101979E
:101D2000938382832481358146815781DA01C901F9
:101D30000197A109B1098F5F9F4FAF4FBF4328F3B0
:101D40000BC0918333822282EA0CFB1C0C1D1D1DEB
:101D5000E482F5820683178383E0808324813581C2
:101D60004681578157FF1AC0C901AA2797FDA09540
:101D7000BA2F81709070A070B070569547953795C6
:101D80002795822B932BA42BB52B84839583A68335
:101D9000B78382819381019693838283DF0101C09F
:101DA000D201CD01CDB7DEB7E2E10C94ED13A0E294
:101DB000B0E0EDEDFEE00C94DD1369837A838B8354
:101DC0009C832D833E834F835887E9E0EE2EF12CD0
:101DD000EC0EFD1ECE010196B7010E94DE128E01AF
:101DE0000F5E1F4FCE010596B8010E94DE128A8950
:101DF00091E089278A8BC701B801AE01475E5F4F2A
:101E00000E948B0D0E940912A096E6E00C94F91333
:101E1000A0E2B0E0EEE0FFE00C94DD1369837A838A
:101E20008B839C832D833E834F835887F9E0EF2E6D
:101E3000F12CEC0EFD1ECE010196B7010E94DE12C0
:101E40008E010F5E1F4FCE010596B8010E94DE1273
:101E5000C701B801AE01475E5F4F0E948B0D0E9423
:101E60000912A096E6E00C94F913A0E2B0E0EBE3CF
:101E7000FFE00C94D11369837A838B839C832D8339
:101E80003E834F835887CE010196BE01675F7F4F27
:101E90000E94DE12CE010596BE016F5E7F4F0E944A
:101EA000DE129985923088F089898230C8F09430AA
:101EB00019F4823051F404C0843029F4923081F452
:101EC00082E291E0C6C0923049F420E09A858A8986
:101ED000981321E02A87CE010996BBC0823049F4CD
:101EE00020E09A858A89981321E02A8BCE014196B9
:101EF000B0C02D843E844F8458886D887E888F883A
:101F0000988CEE24FF248701AA24BB24650140E0BD
:101F100050E060E070E0E0E0F0E0C10181709070BE
:101F2000892BE9F0E60CF71C081D191D9A01AB017D
:101F30002A0D3B1D4C1D5D1D80E090E0A0E0B0E04F
:101F4000E614F7040805190520F481E090E0A0E00C
:101F5000B0E0BA01A901480F591F6A1F7B1FAA0CE4
:101F6000BB1CCC1CDD1C97FE08C081E090E0A0E00B
:101F7000B0E0A82AB92ACA2ADB2A3196E032F10554
:101F800049F0660C771C881C991C5694479437942A
:101F90002794C3CFFA85EA892B893C898B859C8558
:101FA000280F391F2E5F3F4F17C0CA0181709070F4
:101FB000892B61F016950795F794E79480E090E0FF
:101FC000A0E0B0E8E82AF92A0A2B1B2B7695679542
:101FD000579547952F5F3F4F77FDE7CF0CC0440FD4
:101FE000551F661F771F17FD4160EE0CFF1C001F79
:101FF000111F21503040403090E0590790E06907B0
:1020000090E4790760F32B8F3C8FDB01CA018F7757
:102010009070A070B07080349105A105B10561F495
:1020200047FD0AC0E114F1040105110529F0405CE7
:102030005F4F6F4F7F4F40781A8EFE1711F081E08F
:102040008A8F4D8F5E8F6F8F78A383E0898FCE014B
:1020500049960E940912A096E2E10C94ED13A8E1C2
:10206000B0E0E5E3F0E10C94DD1369837A838B83C0
:102070009C832D833E834F83588789E0E82EF12C83
:10208000EC0EFD1ECE010196B7010E94DE128E01FC
:102090000F5E1F4FCE010596B8010E94DE128985A2
:1020A000823040F08989823028F0C701B8010E944F
:1020B000561301C08FEF6896E6E00C94F913A8E17F
:1020C000B0E0E5E6F0E10C94DD1369837A838B835D
:1020D0009C832D833E834F83588789E0E82EF12C23
:1020E000EC0EFD1ECE010196B7010E94DE128E019C
:1020F0000F5E1F4FCE010596B8010E94DE12898542
:10210000823040F08989823028F0C701B8010E94EE
:10211000561301C08FEF6896E6E00C94F913A8E01F
:10212000B0E0E5E9F0E10C94DA139B01AC0183E047
:102130008983DA01C9018827B7FD83959927AA27E2
:10214000BB27B82E211531054105510519F482E050
:1021500089833AC08823A9F0203080E0380780E0E6
:10216000480780E8580729F460E070E080E09FECC1
:1021700030C0EE24FF248701E21AF30A040B150B8A
:1021800002C079018A018EE1C82ED12CDC82CB827B
:10219000ED82FE820F831887C801B7010E94BA1131
:1021A00001971816190684F4082E04C0EE0CFF1CC3
:1021B000001F111F0A94D2F7ED82FE820F83188749
:1021C000C81AD90ADC82CB82BA82CE0101960E945B
:1021D00009122896E9E00C94F613ACE0B0E0E3EFC6
:1021E000F0E10C94E11369837A838B839C83CE01A5
:1021F0000196BE016B5F7F4F0E94DE128D8182309F
:1022000061F1823050F1843021F48E81882351F1C4
:102210002EC02F81388537FD20C06E812F313105CA
:102220001CF06623F9F023C08EE190E0821B930B33
:1022300029853A854B855C8504C056954795379529
:1022400027958A95D2F76623B1F050954095309541
:1022500021953F4F4F4F5F4F0EC020E030E040E0F0
:1022600050E009C02FEF3FEF4FEF5FE704C020E0E1
:1022700030E040E050E8B901CA012C96E2E00C944D
:10228000FD13A8E0B0E0E7E4F1E10C94D9137B0181
:102290008C01611571058105910519F482E089832E
:1022A00060C083E089838EE1C82ED12CDC82CB8292
:1022B000ED82FE820F831887C801B7010E94BA1110
:1022C000FC013197F7FF3BC0222733272E1B3F0B22
:1022D00057016801022E04C0D694C794B794A794FE
:1022E0000A94D2F740E050E060E070E081E090E0D6
:1022F000A0E0B0E004C0880F991FAA1FBB1F2A9559
:10230000D2F70197A109B1098E219F21A023B12302
:102310000097A105B10521F041E050E060E070E0D8
:102320004A295B296C297D294D835E836F837887D9
:102330008EE190E08E1B9F0B9C838B8312C03097A5
:1023400081F00E2E04C0EE0CFF1C001F111F0A941A
:10235000D2F7ED82FE820F831887CE1ADF0ADC8265
:10236000CB821A82CE0101960E9409122896EAE0D9
:102370000C94F513EF92FF920F931F937B018C0146
:1023800080E0E81680E0F80681E0080780E01807A2
:1023900088F48FEFE816F1040105110531F028F0FB
:1023A00088E090E0A0E0B0E017C080E090E0A0E01E
:1023B000B0E012C080E0E81680E0F80680E0080790
:1023C00081E0180728F088E190E0A0E0B0E004C0C8
:1023D00080E190E0A0E0B0E020E230E040E050E0BA
:1023E000281B390B4A0B5B0B04C016950795F79415
:1023F000E7948A95D2F7F701E65DFE4F8081281BAE
:10240000310941095109C9011F910F91FF90EF90C6
:102410000895DF92EF92FF920F931F93FC01E480E7
:10242000F58006811781D1808081823048F480E078
:1024300090E0A0E1B0E0E82AF92A0A2B1B2BA5C006
:10244000843009F49FC0823021F4EE24FF248701F8
:1024500005C0E114F1040105110519F4E0E0F0E014
:1024600096C0628173819FEF623879070CF05BC080
:1024700022E83FEF261B370B2A3131052CF020E0F4
:1024800030E040E050E02AC0B801A701022E04C0AD
:1024900076956795579547950A94D2F781E090E035
:1024A000A0E0B0E004C0880F991FAA1FBB1F2A95A7
:1024B000D2F70197A109B1098E219F21A023B12351
:1024C0000097A105B10521F081E090E0A0E0B0E027
:1024D0009A01AB01282B392B4A2B5B2BDA01C9015E
:1024E0008F779070A070B07080349105A105B10510
:1024F00039F427FF09C0205C3F4F4F4F5F4F04C0A6
:10250000215C3F4F4F4F5F4FE0E0F0E02030A0E014
:102510003A07A0E04A07A0E45A0710F0E1E0F0E033
:1025200079018A0127C06038710564F5FB01E15823
:10253000FF4FD801C7018F779070A070B0708034C2
:102540009105A105B10539F4E7FE0DC080E490E0E6
:10255000A0E0B0E004C08FE390E0A0E0B0E0E80EBF
:10256000F91E0A1F1B1F17FF05C016950795F79444
:10257000E794319687E016950795F794E7948A9546
:10258000D1F705C0EE24FF248701EFEFF0E06E2FB6
:10259000679566276795902F9F77D794DD24D7940A
:1025A0008E2F8695492F462B582F5D29B701CA01DA
:1025B0001F910F91FF90EF90DF900895FC01DB01D8
:1025C000408151812281622F6F7770E0221F222784
:1025D000221F9381892F880F822B282F30E0991F8B
:1025E0009927991F11969C93119721153105A9F5EB
:1025F000411551056105710511F482E037C082E88B
:102600009FEF13969C938E9312979A01AB0167E00C
:10261000220F331F441F551F6A95D1F783E08C9317
:102620000DC0220F331F441F551F12968D919C9190
:102630001397019713969C938E931297203080E006
:10264000380780E0480780E4580758F314962D9324
:102650003D934D935C93179708952F3F310579F47F
:10266000411551056105710519F484E08C930895B5
:1026700064FF03C081E08C9312C01C9210C02F57DE
:10268000304013963C932E93129783E08C9387E00F
:10269000440F551F661F771F8A95D1F770641496F3
:1026A0004D935D936D937C93179708951F93DC0171
:1026B000FB019C91923008F447C08081823008F47D
:1026C00043C0943051F411961C91843099F5818166
:1026D000682F70E0611B71093FC0843021F0923097
:1026E00031F48230B9F18181882389F12DC01196AE
:1026F0001C9111978230F1F081811817D9F412964C
:102700002D913C911397828193818217930794F0C6
:1027100028173907BCF014968D919D910D90BC91AE
:10272000A02D2481358146815781281739074A0712
:102730005B0718F4112341F00AC082179307A4071E
:10274000B50740F4112319F061E070E005C06FEFA8
:102750007FEF02C060E070E0CB011F910895A1E21D
:102760001A2EAA1BBB1BFD010DC0AA1FBB1FEE1F0B
:10277000FF1FA217B307E407F50720F0A21BB30B56
:10278000E40BF50B661F771F881F991F1A9469F7D2
:1027900060957095809590959B01AC01BD01CF012E
:1027A00008952F923F924F925F926F927F928F92F5
:1027B0009F92AF92BF92CF92DF92EF92FF920F93D0
:1027C0001F93CF93DF93CDB7DEB7CA1BDB0B0FB6DA
:1027D000F894DEBF0FBECDBF09942A883988488897
:1027E0005F846E847D848C849B84AA84B984C8842D
:1027F000DF80EE80FD800C811B81AA81B981CE0F24
:10280000D11D0FB6F894DEBF0FBECDBFED01089508
:04281000F894FFCF6A
:102814006464333541423247343032343030004D11
:102824002D4C494E4B202020563332303000016469
:10283400001E00000000000000000001020203036B
:102844000303040404040404040405050505050540
:10285400050505050505050505050606060606061E
:102864000606060606060606060606060606060604
:1028740006060606060606060606070707070707EE
:1028840007070707070707070707070707070707D4
:1028940007070707070707070707070707070707C4
:1028A40007070707070707070707070707070707B4
:1028B400070707070707070707070808080808089E
:1028C4000808080808080808080808080808080884
:1028D4000808080808080808080808080808080874
:1028E4000808080808080808080808080808080864
:1028F4000808080808080808080808080808080854
:102904000808080808080808080808080808080843
:102914000808080808080808080808080808080833
:102924000808080808080808080808080808080823
:0A2934000808080808080808080849
:00000001FF
